:100000003701200013010110EF0000016F0DC0093E
:100010006F0DC00B6F0DC00F37021000130242109E
:10002000B7F210009382C2B5370310001303031018
:1000300083250100032641002320B300370120005F
:1000400013014110138505009305060003264100A6
:1000500063C2A5026346B6002320B2006F0080038E
:100060006346A6002320C2006F00C0022320A20026
:100070006F004002634CB6006346A6002320A20036
:100080006F0040012320C2006F00C0002320B20097
:100090006F0040001302420013014100E34452FA92
:1000A0002320C20067800000732100C8F32000C035
:1000B000F32100C8E39A21FE370210001302420028
:1000C000232012002322220067000D00B744000005
:1000D0003745001013054500B705001083AD050036
:1000E00093854500E31CB5FE670D0D00B70F11FAAF
:1000F000938F2F00370F1000B74E1000378E10006F
:100100002320FF0103A00E0003200E00EFF01FFECE
:10011000B70F55DA938F2F00370F1000B74E10002E
:10012000378E10002320FF0103A00E0003200E00D5
:0C013000EFF01FFE6F0040006F000000A9
:00000001FF
