:10000000B78F0000377F0000370410002320F40171
:10001000B7DEEA0D938E4E0237F6FFFFB7150000EC
:100020001305800097D6EA0D639ED62FB38EEF415D
:10003000639ABE2E330EFF416316CE2E130030009E
:1000400093001000130120009301300013024000C0
:1000500033824000338241006316A22C1302400019
:10006000930F6000B3424100639E5F2A1343210156
:10007000130F000163186F2AB3634100930E6000F1
:10008000130E300263907E2A13E40102631C8E2853
:10009000B3F41100930D100063969D2813F5F10041
:1000A000130D30006310AD289302A035B73F000058
:1000B000938F0F5AB39542006396BF261396E201C1
:1000C000370F00806310CF2693960200639CD224E2
:1000D0009302A035930F5003B3D542006394BF241D
:1000E0001356FF016390C02493560F00631CDF2258
:1000F00093028000B70D00F0B3553F406394B523E1
:1001000013563F406390BD2293D64240631CD020DB
:10011000B3024040338340409303700033A7620032
:100120006392E020B3275300639E071E3328130019
:10013000631A181E93A8F2FF6396101F1329D3FFAA
:100140006312091E93294300639E191C37F6FFFFB3
:10015000333AC20063181A1C333A460063140A1C6F
:1001600093BA020863900A1C133B5600631C0B1AD7
:1001700093BBFA7F63981B1A6F05C0136394351AFB
:10018000EF06C013732A00C0F32A00C8732B10C0F7
:10019000F32B10C8732C20C0F32C20C8130540008B
:1001A0006300A2123735547613050521B7C5DCFE6E
:1001B000938585A937C65476130686A9B736547633
:1001C00093868629375700001307A74B93076007CC
:1001D0003748230113087856B7C8ADDE9388F8EE88
:1001E00037041000930484102320A4002322A400C9
:1001F0002324A4002312B4002304B400032A04001F
:1002000063124513832A4400032B8400631C561198
:10021000639A6611831B540063167711030CB400B4
:100220006392871123A2040123A4140103AC4400A8
:1002300083AC8400130D0C006316880F6394980F31
:100240006312A80F23200401232214012322A402F5
:100250002324B4026F0DC0036F0DC00A37355476E6
:1002600013050521B7C5DCFE938585A9032A040083
:10027000832A4400032B4402832B840263140A0B59
:1002800063921A0B6310AB0A639E75096F0D800CA5
:10029000732100C8F32000C0F32100C8E39A21FEB7
:1002A00037221000130282FF232012002322220093
:1002B00067000D00B385200067060500678706000C
:1002C0006302320663942100EF0FC0059305F0FF2F
:1002D00063C41500EF0F000563C6B50463D4B50011
:1002E000EF0F400463D005046364B000EF0F800398
:1002F00063EA150263F41500EF0FC00263F44102D4
:100300006FFD5FEAB74400003745F0001305450074
:10031000B705F00083AD050093854500E31CB5FEED
:10032000670D0D00B70F11FA938F1F00372F1000C4
:10033000130F0FF0B76E1000938E0EF037AE100053
:10034000130E0EF02320FF0123A00E0023200E0029
:10035000EFF05FFDB70F55DA938F1F00372F1000B6
:10036000130F0FF0B76E1000938E0EF037AE100023
:10037000130E0EF02320FF0123A00E0023200E00F9
:0C038000EFF05FFD6F0040006F00000018
:00000001FF
