:100000003701100013010110130540009305600033
:10001000130670009306F0FF1307B0039307E00187
:100020001308A0039308A0031309B003930920FE4B
:10003000130A4000930AA0FE130B8002930B1002D8
:10004000130C0000930C60062320A1002322B100B2
:100050002324C1002326D1002328E100232AF10014
:10006000232C0101232E11012320210323223103FC
:10007000232441032326510323286103232A7103E8
:10008000232C8103232E9103EF00800D6F0D0016AA
:100090006F0D001813054000930560001306600003
:1000A000930670001307E0019307A0031308A00351
:1000B0009308A0031309A00393094000130AA0FEAC
:1000C000930A4000130B1002930B1002130C100242
:1000D000930C6006371210001302C203032D42FC7A
:1000E0006318AD14032D82FC6314BD14032DC2FCF0
:1000F0006310CD14032D02FD631CDD12032D42FDA0
:100100006318ED12032D82FD6314FD12032DC2FD51
:1001100063100D13032D02FE631C1D11032D42FEFF
:1001200063182D11032D82FE63143D11032DC2FEB1
:1001300063104D11032D02FF631C5D0F032D42FF61
:1001400063186D0F032D82FF63147D0F032DC2FF13
:1001500063108D0F032D0200631C9D0D6F0D800F2A
:100160003712100013024200B71210009382C2032C
:100170003713100083250100032641002320B3001C
:100180003701100013014110138505009305060087
:100190000326410063C2A5026346B6002320B200D5
:1001A0006F0080036346A6002320C2006F00C002D8
:1001B0002320A2006F004002634CB6006346A600F5
:1001C0002320A2006F0040012320C2006F00C00066
:1001D0002320B2006F0040001302420013014100CF
:1001E000E34452FA2320C20067800000732100C854
:1001F000F32000C0F32100C8E39A21FE370210006B
:1002000013024200232012002322220067000D0067
:10021000B74400003745001013054500B70500102E
:1002200083AD050093854500E31CB5FE670D0D0009
:10023000B70F11FA938F2F00370F1000B74E100031
:10024000378E10002320FF0103A00E0003200E00B4
:10025000EFF01FFEB70F55DA938F2F00370F100006
:10026000B74E1000378E10002320FF0103A00E00B0
:0802700003200E00EFF01FFE59
:00000001FF
